:020000040800F2
:1000000000500020A10300088103000889030008B4
:100010008B0300088D0300088F0300080000000018
:100020000000000000000000000000009103000834
:1000300093030008000000009503000897030008E0
:10004000E9030008E9030008E9030008E9030008E0
:10005000E9030008E9030008E9030008E9030008D0
:10006000E9030008E9030008E9030008E9030008C0
:10007000E9030008E9030008E9030008E9030008B0
:10008000E9030008E9030008E9030008E9030008A0
:10009000E9030008E9030008E9030008E903000890
:1000A000E9030008E9030008E9030008E903000880
:1000B000E9030008E9030008E9030008E903000870
:1000C000E9030008E9030008E9030008E903000860
:1000D000E9030008E9030008E9030008E903000850
:1000E000E9030008E9030008E90300080000000034
:1000F0000000000000000000000000000000000000
:0C01000000000000000000005FF808F1A3
:10010C0010B5054C237833B9044B13B10448AFF345
:10011C0000800123237010BD3C040020000000006F
:10012C006C11000808B5034B1BB103490348AFF32E
:10013C00008008BD00000000400400206C11000885
:10014C0030B589B04FF40053049301230593002577
:10015C0006950224079404A9074800F0E9F94FF426
:10016C00007300930195029403946946034800F0D0
:10017C00DFF909B030BD00BF00100140000801409C
:10018C0084B0134B9A6942F010029A619A6902F09A
:10019C0010020092009A9A6942F020029A619A69C0
:1001AC0002F020020192019A9A6942F004029A61CB
:1001BC009A6902F004020292029A9A6942F00802C9
:1001CC009A619B6903F008030393039B04B0704787
:1001DC000010024072B6FEE700B591B02822002153
:1001EC0006A800F01BFF00230193029303930493D2
:1001FC000593012206924FF4803307930A92022250
:10020C000D920E934FF4E0130F9306A800F0A4FB8D
:10021C0090B90F23019302210291002303934FF411
:10022C0080620492059301A800F0DAFD30B900F069
:10023C009BFD11B05DF804FBFFF7CCFFFFF7CAFF85
:10024C0000B597B00B4B01930B4B02930023039318
:10025C0004934FF4804205920693079308930993F5
:10026C0001A800F085FA10B917B05DF804FBFFF790
:10027C00B1FF00BF00540040A086010008B54FF448
:10028C000071094800F066FA30B101224FF40051B8
:10029C00064800F066FA08BD00224FF400510348EE
:1002AC0000F05FFAF7E700BF0008014000100140C2
:1002BC0008B500F0BBF8FFF78FFFFFF761FFFFF702
:1002CC00BFFFFFF73DFFFFF7D9FFFCE782B00E4BF6
:1002DC009A6942F001029A619A6902F00102009255
:1002EC00009ADA6942F08052DA61DB6903F08053DC
:1002FC000193019B054A536823F0E06343F00073BC
:10030C00536002B0704700BF001002400000014073
:10031C0010B586B0002302930393049305930268EF
:10032C00114B9A4201D006B010BD104CA36943F09A
:10033C000803A361A36903F008030093009BC02387
:10034C000293122303930323059302A9084800F098
:10035C00EFF8E36943F40013E361E36903F400137A
:10036C000193019BDFE700BF0054004000100240E6
:10037C00000C014008B500F001FEFEE7FEE7FEE7C9
:10038C00FEE7FEE770477047704708B500F060F86D
:10039C0008BD70470C480D490D4A002302E0D458A3
:1003AC00C4500433C4188C42F9D30A4A0A4C0023B3
:1003BC0001E013600432A242FBD3FFF7EAFF00F026
:1003CC0009FEFFF775FF7047000000203C04002079
:1003DC00C01100083C04002060040020FEE700006F
:1003EC0010B504460E4B18784FF47A73B3FBF0F348
:1003FC000C4A1068B0FBF3F000F086F868B90F2CCB
:10040C0001D901200AE0002221464FF0FF3000F014
:10041C0043F8054B1C60002000E0012010BD00BF1C
:10042C0004000020000000200800002008B5074A46
:10043C00136843F010031360032000F01BF8002036
:10044C00FFF7CEFFFFF742FF002008BD002002405F
:10045C00034A1168034B1B780B441360704700BFB1
:10046C005804002004000020014B1868704700BF9E
:10047C0058040020074AD36823F4E0631B041B0CC8
:10048C00000200F4E060034343F0BF6343F4003325
:10049C00D360704700ED00E000B5194BDB68C3F387
:1004AC000223C3F1070CBCF1040F28BF4FF0040C5E
:1004BC0003F1040EBEF1060F18D9033B4FF0FF3EBB
:1004CC000EFA0CFC21EA0C0199400EFA03F322EA15
:1004DC000303194300280BDB0901C9B200F160408A
:1004EC0000F5614080F800135DF804FB0023E5E79C
:1004FC0000F00F000901C9B2024B1954F4E700BF18
:10050C0000ED00E014ED00E00138B0F1807F0BD27B
:10051C004FF0E0235861054AF02182F823100020A7
:10052C00986107221A6170470120704700ED00E0C6
:10053C0070B582B00024A446A6E0804DAA4210D02B
:10054C0007D97F4DAA420CD005F58035AA4208D0B8
:10055C0013E0A5F58015AA4203D005F57025AA4233
:10056C0007D18A68002A58D0012A51D04361082447
:10057C0003E0A5F58015AA42F3D0BEF1FF0F4ED8CB
:10058C000646BEF1FF0F4CD84FEA8C0233680F259C
:10059C00954023EA050304FA02F2134333604B68D7
:1005AC0013F0805F6ED0674B9A6942F001029A613A
:1005BC009B6903F001030193019B4FEA9C02951C7C
:1005CC00614B53F825600CF003039D000F23AB40E7
:1005DC0026EA03065D4B984229D003F580639842C6
:1005EC0000F08E8003F58063984200F08B8003F559
:1005FC008063984219D004231AE0CC68BDE7CC681C
:10060C000434BAE7CC680834B7E7CC680C34B4E7E8
:10061C0003610824B1E70024AFE70424ADE7061D0D
:10062C00AFE7ACF108029200B0E7032300E000232F
:10063C00AB4033430232444D45F822304B6813F43F
:10064C00803F61D0424A136843EA0E0313604B6843
:10065C0013F4003F5ED03E4A536843EA0E035360E6
:10066C004B6813F4801F5BD0394A936843EA0E033E
:10067C0093604B6813F4001F58D0354AD36843EA93
:10068C000E03D3600CF1010C0A6832FA0CF353D050
:10069C00012303FA0CF302EA030E33EA0202F1D14E
:1006AC004A68122A3FF649AF122A3FF666AF01A5F7
:1006BC0055F822F06F05000807060008110600081F
:1006CC002306000887050008870500088705000831
:1006DC0087050008870500088705000887050008BE
:1006EC0087050008870500088705000887050008AE
:1006FC0087050008870500080B0600081706000888
:10070C00012395E7022393E7114A136823EA0E03AA
:10071C0013609CE70E4A536823EA0E0353609FE76D
:10072C000B4A936823EA0E039360A2E7084AD36846
:10073C0023EA0E03D360A5E702B070BD00002210BF
:10074C000000311000100240000001400008014080
:10075C00000401408368194201D001207047002039
:10076C0070470AB1016170470904016170470000CC
:10077C00002800F0CC8070B5044690F83D30002B7A
:10078C0077D0242384F83D302268136823F00103CA
:10079C0013602268136843F40043136022681368E3
:1007AC0023F40043136000F0D7FB62685A4B9A4263
:1007BC0064D85A4B98428CBF00230123002B40F085
:1007CC00A8805749A1FB00318B0C25686A6822F080
:1007DC003F0242EA91426A6021680A6A22F03F02B3
:1007EC0066684D4DAE424FD8013313430B622168FE
:1007FC00CA6922F44F4222F0FF026668464B9E42C1
:10080C004CD8431E7600B3FBF6F3013340F6FC7074
:10081C00034278D0C3F30B031343CB6121680B68FD
:10082C0023F0C003E269206A024313430B60216882
:10083C008B6823F4034323F0FF032269E06802432F
:10084C0013438B602168CB6823F0FF036269A069B6
:10085C0002431343CB602268136843F00103136017
:10086C0000202064202384F83D30206384F83E006F
:10087C0070BD80F83C30FFF74BFD82E7294B984266
:10088C008CBF0023012399E74FF4967505FB03F306
:10089C00254DA5FB03539B090133A6E7A368BBB900
:1008AC00451E06EB460CB5FBFCF50135C5F30B05F7
:1008BC00B5FA85F56D0945BBC3B9013806EB46039E
:1008CC00B0FBF3F30133C3F30B0343F40043A3E78F
:1008DC00451E06EB860C0CEB8C0CB5FBFCF50135C0
:1008EC00C5F30B05B5FA85F56D09E4E7013806EBA0
:1008FC00860303EB8303B0FBF3F30133C3F30B0366
:10090C0043F4404388E7042386E7012384E701206E
:10091C0070470120ACE700BFA08601007F841E0059
:10092C0083DE1B43FF083D00D34D621082B0084BA1
:10093C001B68084AA2FB03235B0A00FB03F3019329
:10094C0000BF019B5A1E0192002BF9D102B07047D7
:10095C0000000020D34D6210002800F0F18170B52A
:10096C0082B00446036813F0010F2CD0994B5B68DE
:10097C0003F00C03042B1DD0964B5B6803F00C03A7
:10098C00082B12D06368B3F5803F41D0002B55D1B2
:10099C0003F1804303F504331A6822F480321A60A1
:1009AC001A6822F480221A6037E08A4B5B6813F4D1
:1009BC00803FE7D0874B1B6813F4003F03D063687C
:1009CC00002B00F0BF81236813F0020F75D0814B10
:1009DC005B6813F00C0F5FD07E4B5B6803F00C036D
:1009EC00082B54D02369002B00F08A807A4B01220B
:1009FC001A60FFF739FD0546764B1B6813F0020FA2
:100A0C0075D1FFF731FD401B0228F5D903209EE17B
:100A1C00704A136843F480331360636843B3FFF781
:100A2C0023FD05466B4B1B6813F4003FCBD1FFF73E
:100A3C001BFD401B6428F5D9032088E1B3F5A02FDA
:100A4C0009D0644B1A6822F480321A601A6822F4B6
:100A5C0080221A60E1E703F18043A3F53C331A6866
:100A6C0042F480221A601A6842F480321A60D4E789
:100A7C00FFF7FAFC0546574B1B6813F4003FA2D056
:100A8C00FFF7F2FC401B6428F5D903205FE1514BC2
:100A9C005B6813F4803FA5D14E4B1B6813F0020F1B
:100AAC0003D02369012B40F04F814A4A136823F08D
:100ABC00F803616943EAC1031360236813F0080F5C
:100ACC0033D0A369002B5CD0434B0122C3F88024A4
:100ADC00FFF7CAFC05463F4B5B6A13F0020F21D1AE
:100AEC00FFF7C2FC401B0228F5D903202FE1394A3D
:100AFC00136823F0F803616943EAC1031360DCE770
:100B0C00354B00221A60FFF7AFFC0546314B1B68D2
:100B1C0013F0020FD1D0FFF7A7FC401B0228F5D928
:100B2C00032014E10120FFF701FF236813F0040FE9
:100B3C0000F09680274BDB6913F0805F34D1254B96
:100B4C00DA6942F08052DA61DB6903F08053019379
:100B5C00019B0125214B1B6813F4807F26D0E36891
:100B6C00012B3DD0002B53D103F1804303F504330B
:100B7C001A6A22F001021A621A6A22F004021A623C
:100B8C0033E0154B0022C3F88024FFF76DFC0546BB
:100B9C00104B5B6A13F0020FC7D0FFF765FC401BCC
:100BAC000228F5D90320D2E00025D3E70B4A1368BD
:100BBC0043F480731360FFF757FC0646074B1B6822
:100BCC0013F4807FCBD1FFF74FFC801B6428F5D941
:100BDC000320BCE0001002400000424200700040C4
:100BEC005F4A136A43F001031362E36833B3FFF700
:100BFC003BFC06465A4B1B6A13F0020F2FD1FFF732
:100C0C0033FC801B41F288339842F3D903209EE0D9
:100C1C00052B09D0524B1A6A22F001021A621A6A89
:100C2C0022F004021A62E0E74D4B1A6A42F0040209
:100C3C001A621A6A42F001021A62D6E7FFF714FC34
:100C4C000646474B1B6A13F0020F08D0FFF70CFC4B
:100C5C00801B41F288339842F3D9032077E0E5B941
:100C6C00E369002B72D03E4A526802F00C02082A4B
:100C7C0056D0022B17D03B4B00221A66FFF7F4FB21
:100C8C000446374B1B6813F0007F47D0FFF7ECFB93
:100C9C00001B0228F5D9032059E0314AD36923F00F
:100CAC008053D361DCE72F4B00221A66FFF7DCFB85
:100CBC0005462B4B1B6813F0007F06D0FFF7D4FBC7
:100CCC00401B0228F5D9032041E0236AB3F5803F8D
:100CDC001AD023494B6823F47413226A606A0243C6
:100CEC0013434B601F4B01221A66FFF7BDFB0446F2
:100CFC001B4B1B6813F0007F0ED1FFF7B5FB001BDD
:100D0C000228F5D9032022E0154A536823F4003356
:100D1C00A1680B435360DCE7002018E0002016E0CC
:100D2C00012B16D00E4B5B6803F48031226A914282
:100D3C0011D103F47013626A93420ED1002006E0C5
:100D4C0001207047012002E0012000E0002002B0E9
:100D5C0070BD0120FBE70120F9E70120F7E700BF98
:100D6C000010024000004242014B0122DA6470473D
:100D7C000000424286B0164B0FCB0DF1180C0CE95B
:100D8C000F0040F20123ADF80430124B5B6803F006
:100D9C000C02082A02D0104806B07047C3F38342F5
:100DAC00624412F8100C13F4803F0CD0094B5B68B2
:100DBC00C3F34043634413F8143C074A02FB00F0AE
:100DCC00B0FBF3F0E8E7054B03FB00F0E4E700BFF2
:100DDC009C1100080010024000127A0000093D002E
:100DEC00002800F0A08070B50D460446524B1B68DD
:100DFC0003F007038B420BD24F4A136823F007030F
:100E0C000B431360136803F007038B4240F08D8093
:100E1C00236813F0020F17D013F0040F04D0474AC5
:100E2C00536843F4E0635360236813F0080F04D055
:100E3C00424A536843F460535360404A536823F06A
:100E4C00F003A1680B435360236813F0010F31D0FA
:100E5C006368012B20D0022B25D0384A126812F07F
:100E6C00020F64D035494A6822F0030213434B60E9
:100E7C00FFF7FAFA0646314B5B6803F00C03626825
:100E8C00B3EB820F16D0FFF7EFFA801B41F28833D9
:100E9C009842F0D9032045E0284A126812F4003F2A
:100EAC00E0D101203EE0254A126812F0007FD9D132
:100EBC00012037E0204B1B6803F00703AB420AD933
:100ECC001D4A136823F007032B431360136803F0C8
:100EDC000703AB422DD1236813F0040F06D0174A39
:100EEC00536823F4E063E1680B435360236813F009
:100EFC00080F07D0114A536823F46053216943EA61
:100F0C00C1035360FFF736FF0C4B5B68C3F303134D
:100F1C000B4AD35CD8400B4B18600B4B1868FFF78F
:100F2C005FFA002070BD012070470120FAE7012014
:100F3C00F8E70120F6E700BF002002400010024055
:100F4C00841100080000002008000020014B1868E4
:100F5C00704700BF0000002008B5FFF7F7FF044BF7
:100F6C005B68C3F30223034AD35CD84008BD00BFBF
:100F7C0000100240941100087047000008B5064BA1
:100F8C009B6813F0800F00D108BDFFF7F5FF024BF3
:100F9C0080229A72F8E700BF00100240002301463D
:100FAC001A46184600F08CB838B5084B084D5B1B38
:100FBC009C1007D0043B1D44013C55F8043998475C
:100FCC00002CF9D1BDE8384000F0D0B8C0110008B1
:100FDC00BC11000870B50D4E0D4D761BB61006D029
:100FEC00002455F8043B01349847A642F9D1094E28
:100FFC00094D00F0B5F8761BB61006D0002455F854
:10100C00043B01349847A642F9D170BDB4110008D5
:10101C00B4110008BC110008B4110008830730B5E6
:10102C0048D0541E002A3FD00346CAB201E0013C0E
:10103C003AD303F8012B9D07F9D1032C2DD9CDB24E
:10104C0045EA05250F2C45EA054536D9A4F11002D1
:10105C0022F00F0C03F1200EE6444FEA121C03F1B0
:10106C00100242E9045542E9025510327245F8D19A
:10107C000CF1010214F00C0F03EB021204F00F0C34
:10108C0013D0ACF1040323F003030433134442F8EC
:10109C00045B9342FBD10CF003042CB1CAB21C4488
:1010AC0003F8012B9C42FBD130BD64461346002C47
:1010BC00F4D1F9E703461446BFE71A46A446E0E725
:1010CC002DE9F8431D4D0646286898460F46914673
:1010DC0000F042F81A4B1B68D3F848411CB328683F
:1010EC0065681F2D24DC4EB96B1C0235636044F817
:1010FC00257000F033F80020BDE8F883012304EBE1
:10110C008501C1F88890D4F88821AB401A43022E8F
:10111C00C4F88821C1F80881E6D1D4F88C21134396
:10112C00C4F88C31E0E703F5A674C3F84841D6E760
:10113C0000F014F84FF0FF30DEE700BF3804002059
:10114C00B0110008024B13B10248FFF727BF7047DC
:10115C0000000000B50F0008704700BF704700BFCB
:10116C00F8B500BFF8BC08BC9E467047F8B500BF88
:08117C00F8BC08BC9E46704758
:101184000000000000000000010203040607080933
:101194000000000001020304020304050607080915
:1011A4000A0B0C0D0E0F10100000000010000020A0
:0811B40051110008310100088F
:0411BC000D01000819
:1011C0000024F400010000001000000000000000F6
:1011D00000000000FC02002064030020CC0300207B
:1011E00000000000000000000000000000000000FF
:1011F00000000000000000000000000000000000EF
:1012000000000000000000000000000000000000DE
:1012100000000000000000000000000000000000CE
:1012200000000000000000000000000000000000BE
:1012300000000000000000000000000000000000AE
:10124000000000000000000000000000000000009E
:10125000000000000000000000000000000000008E
:10126000000000000000000000000000000000007E
:10127000000000000000000001000000000000006D
:101280000E33CDAB34126DE6ECDE05000B00000032
:10129000000000000000000000000000000000004E
:1012A000000000000000000000000000000000003E
:1012B000000000000000000000000000000000002E
:1012C000000000000000000000000000000000001E
:0C15F00000000000000000005C0400206F
:04000005080003A14B
:00000001FF
